{
  "contractName": "DummyZeroEx",
  "abi": [
    {
      "inputs": [
        {
          "internalType": "string",
          "name": "inputToken",
          "type": "string"
        },
        {
          "internalType": "string",
          "name": "outputToken",
          "type": "string"
        },
        {
          "internalType": "uint256",
          "name": "inputTokenAmount",
          "type": "uint256"
        },
        {
          "internalType": "uint256",
          "name": "minOutputTokenAmount",
          "type": "uint256"
        }
      ],
      "name": "transformERC20",
      "outputs": [
        {
          "internalType": "uint256",
          "name": "outputTokenAmount",
          "type": "uint256"
        }
      ],
      "stateMutability": "payable",
      "type": "function",
      "payable": true
    }
  ],
  "bytecode": "0x608060405234801561001057600080fd5b50610210806100206000396000f3fe60806040526004361061001e5760003560e01c8063152d61bf14610023575b600080fd5b61003d60048036038101906100389190610109565b610053565b60405161004a91906101bf565b60405180910390f35b60006107e790509695505050505050565b600080fd5b600080fd5b600080fd5b600080fd5b600080fd5b60008083601f8401126100935761009261006e565b5b8235905067ffffffffffffffff8111156100b0576100af610073565b5b6020830191508360018202830111156100cc576100cb610078565b5b9250929050565b6000819050919050565b6100e6816100d3565b81146100f157600080fd5b50565b600081359050610103816100dd565b92915050565b6000806000806000806080878903121561012657610125610064565b5b600087013567ffffffffffffffff81111561014457610143610069565b5b61015089828a0161007d565b9650965050602087013567ffffffffffffffff81111561017357610172610069565b5b61017f89828a0161007d565b9450945050604061019289828a016100f4565b92505060606101a389828a016100f4565b9150509295509295509295565b6101b9816100d3565b82525050565b60006020820190506101d460008301846101b0565b9291505056fea2646970667358221220d0d0c3b2797ed6fc25cd75246de903c957047d2089d2052a8715e57e4dd0434e64736f6c63430008110033",
  "immutableReferences": {},
  "source": "pragma solidity ^0.8.13;\n\ninterface ITransformERC20Feature {\n    function transformERC20(\n        string calldata inputToken,\n        string calldata outputToken,\n        uint256 inputTokenAmount,\n        uint256 minOutputTokenAmount\n    ) external payable returns (uint256 outputTokenAmount);\n}\n\ninterface IZeroEx is\n    ITransformERC20Feature\n{\n   \n}\n\ncontract DummyZeroEx is IZeroEx{\n     function transformERC20(\n        string calldata inputToken,\n        string calldata outputToken,\n        uint256 inputTokenAmount,\n        uint256 minOutputTokenAmount\n    ) external payable returns (uint256 outputTokenAmount){\n        return 2023;\n    }\n}\n",
  "sourcePath": "/Users/huzong/Eulith_CodeExercise02/truffle_proj/contracts/DummyZeroEx.sol",
  "compiler": {
    "name": "solc",
    "version": "0.8.17+commit.8df45f5f.Emscripten.clang"
  },
  "schemaVersion": "3.4.11",
  "updatedAt": "2022-12-18T00:39:07.837Z",
  "networkType": "ethereum",
  "devdoc": {
    "kind": "dev",
    "methods": {},
    "version": 1
  },
  "userdoc": {
    "kind": "user",
    "methods": {},
    "version": 1
  }
}